{
  "contractName": "SupplyChain",
  "abi": [
    {
      "constant": true,
      "inputs": [],
      "name": "skuCount",
      "outputs": [
        {
          "name": "",
          "type": "uint256"
        }
      ],
      "payable": false,
      "stateMutability": "view",
      "type": "function",
      "signature": "0x22702473"
    },
    {
      "constant": true,
      "inputs": [],
      "name": "owner",
      "outputs": [
        {
          "name": "",
          "type": "address"
        }
      ],
      "payable": false,
      "stateMutability": "view",
      "type": "function",
      "signature": "0x8da5cb5b"
    },
    {
      "constant": true,
      "inputs": [
        {
          "name": "",
          "type": "uint256"
        }
      ],
      "name": "items",
      "outputs": [
        {
          "name": "name",
          "type": "string"
        },
        {
          "name": "sku",
          "type": "uint256"
        },
        {
          "name": "price",
          "type": "uint256"
        },
        {
          "name": "state",
          "type": "uint8"
        },
        {
          "name": "seller",
          "type": "address"
        },
        {
          "name": "buyer",
          "type": "address"
        }
      ],
      "payable": false,
      "stateMutability": "view",
      "type": "function",
      "signature": "0xbfb231d2"
    },
    {
      "inputs": [],
      "payable": false,
      "stateMutability": "nonpayable",
      "type": "constructor",
      "signature": "constructor"
    },
    {
      "anonymous": false,
      "inputs": [
        {
          "indexed": false,
          "name": "sku",
          "type": "uint256"
        }
      ],
      "name": "ForSale",
      "type": "event",
      "signature": "0xa96ae0fc3224ebd79eebfe54bd130cc9cb94416cddd1f2386115e00b72532468"
    },
    {
      "anonymous": false,
      "inputs": [
        {
          "indexed": false,
          "name": "sku",
          "type": "uint256"
        }
      ],
      "name": "Sold",
      "type": "event",
      "signature": "0x92f64ca637d023f354075a4be751b169c1a8a9ccb6d33cdd0cb3520543995727"
    },
    {
      "anonymous": false,
      "inputs": [
        {
          "indexed": false,
          "name": "sku",
          "type": "uint256"
        }
      ],
      "name": "Shipped",
      "type": "event",
      "signature": "0xf00b9a5725b80c54016f42114f6ed7792d22eecb116011c4afac29c57bef6c95"
    },
    {
      "anonymous": false,
      "inputs": [
        {
          "indexed": false,
          "name": "sku",
          "type": "uint256"
        }
      ],
      "name": "Received",
      "type": "event",
      "signature": "0xa8142743f8f70a4c26f3691cf4ed59718381fb2f18070ec52be1f1022d855557"
    },
    {
      "constant": false,
      "inputs": [
        {
          "name": "_name",
          "type": "string"
        },
        {
          "name": "_price",
          "type": "uint256"
        }
      ],
      "name": "addItem",
      "outputs": [
        {
          "name": "",
          "type": "bool"
        }
      ],
      "payable": false,
      "stateMutability": "nonpayable",
      "type": "function",
      "signature": "0x62d6bbdf"
    },
    {
      "constant": false,
      "inputs": [
        {
          "name": "sku",
          "type": "uint256"
        }
      ],
      "name": "buyItem",
      "outputs": [],
      "payable": true,
      "stateMutability": "payable",
      "type": "function",
      "signature": "0xe7fb74c7"
    },
    {
      "constant": false,
      "inputs": [
        {
          "name": "sku",
          "type": "uint256"
        }
      ],
      "name": "shipItem",
      "outputs": [],
      "payable": false,
      "stateMutability": "nonpayable",
      "type": "function",
      "signature": "0xf61c899a"
    },
    {
      "constant": false,
      "inputs": [
        {
          "name": "sku",
          "type": "uint256"
        }
      ],
      "name": "receiveItem",
      "outputs": [],
      "payable": false,
      "stateMutability": "nonpayable",
      "type": "function",
      "signature": "0xa26be999"
    },
    {
      "constant": true,
      "inputs": [
        {
          "name": "_sku",
          "type": "uint256"
        }
      ],
      "name": "fetchItem",
      "outputs": [
        {
          "name": "name",
          "type": "string"
        },
        {
          "name": "sku",
          "type": "uint256"
        },
        {
          "name": "price",
          "type": "uint256"
        },
        {
          "name": "state",
          "type": "uint256"
        },
        {
          "name": "seller",
          "type": "address"
        },
        {
          "name": "buyer",
          "type": "address"
        }
      ],
      "payable": false,
      "stateMutability": "view",
      "type": "function",
      "signature": "0xad4b9cfb"
    }
  ],
  "bytecode": "0x608060405234801561001057600080fd5b50336000806101000a81548173ffffffffffffffffffffffffffffffffffffffff021916908373ffffffffffffffffffffffffffffffffffffffff1602179055506000600181905550610ec6806100686000396000f3fe60806040526004361061008e576000357c0100000000000000000000000000000000000000000000000000000000900463ffffffff168063227024731461009357806362d6bbdf146100be5780638da5cb5b146101a8578063a26be999146101ff578063ad4b9cfb1461023a578063bfb231d214610369578063e7fb74c7146104a6578063f61c899a146104d4575b600080fd5b34801561009f57600080fd5b506100a861050f565b6040518082815260200191505060405180910390f35b3480156100ca57600080fd5b5061018e600480360360408110156100e157600080fd5b81019080803590602001906401000000008111156100fe57600080fd5b82018360208201111561011057600080fd5b8035906020019184600183028401116401000000008311171561013257600080fd5b91908080601f016020809104026020016040519081016040528093929190818152602001838380828437600081840152601f19601f82011690508083019250505050505050919291929080359060200190929190505050610515565b604051808215151515815260200191505060405180910390f35b3480156101b457600080fd5b506101bd6106ce565b604051808273ffffffffffffffffffffffffffffffffffffffff1673ffffffffffffffffffffffffffffffffffffffff16815260200191505060405180910390f35b34801561020b57600080fd5b506102386004803603602081101561022257600080fd5b81019080803590602001909291905050506106f3565b005b34801561024657600080fd5b506102736004803603602081101561025d57600080fd5b8101908080359060200190929190505050610821565b60405180806020018781526020018681526020018581526020018473ffffffffffffffffffffffffffffffffffffffff1673ffffffffffffffffffffffffffffffffffffffff1681526020018373ffffffffffffffffffffffffffffffffffffffff1673ffffffffffffffffffffffffffffffffffffffff168152602001828103825288818151815260200191508051906020019080838360005b8381101561032957808201518184015260208101905061030e565b50505050905090810190601f1680156103565780820380516001836020036101000a031916815260200191505b5097505050505050505060405180910390f35b34801561037557600080fd5b506103a26004803603602081101561038c57600080fd5b81019080803590602001909291905050506109cc565b60405180806020018781526020018681526020018560038111156103c257fe5b60ff1681526020018473ffffffffffffffffffffffffffffffffffffffff1673ffffffffffffffffffffffffffffffffffffffff1681526020018373ffffffffffffffffffffffffffffffffffffffff1673ffffffffffffffffffffffffffffffffffffffff168152602001828103825288818151815260200191508051906020019080838360005b8381101561046657808201518184015260208101905061044b565b50505050905090810190601f1680156104935780820380516001836020036101000a031916815260200191505b5097505050505050505060405180910390f35b6104d2600480360360208110156104bc57600080fd5b8101908080359060200190929190505050610aed565b005b3480156104e057600080fd5b5061050d600480360360208110156104f757600080fd5b8101908080359060200190929190505050610cc8565b005b60015481565b60007fa96ae0fc3224ebd79eebfe54bd130cc9cb94416cddd1f2386115e00b725324686001546040518082815260200191505060405180910390a160c06040519081016040528084815260200160015481526020018381526020016000600381111561057d57fe5b81526020013373ffffffffffffffffffffffffffffffffffffffff168152602001600073ffffffffffffffffffffffffffffffffffffffff1681525060026000600154815260200190815260200160002060008201518160000190805190602001906105ea929190610df5565b50602082015181600101556040820151816002015560608201518160030160006101000a81548160ff0219169083600381111561062357fe5b021790555060808201518160030160016101000a81548173ffffffffffffffffffffffffffffffffffffffff021916908373ffffffffffffffffffffffffffffffffffffffff16021790555060a08201518160040160006101000a81548173ffffffffffffffffffffffffffffffffffffffff021916908373ffffffffffffffffffffffffffffffffffffffff16021790555090505060018054016001819055506001905092915050565b6000809054906101000a900473ffffffffffffffffffffffffffffffffffffffff1681565b806002600381111561070157fe5b6002600083815260200190815260200160002060030160009054906101000a900460ff16600381111561073057fe5b14151561073c57600080fd5b6002600083815260200190815260200160002060040160009054906101000a900473ffffffffffffffffffffffffffffffffffffffff168073ffffffffffffffffffffffffffffffffffffffff163373ffffffffffffffffffffffffffffffffffffffff161415156107ad57600080fd5b60036002600085815260200190815260200160002060030160006101000a81548160ff021916908360038111156107e057fe5b02179055507fa8142743f8f70a4c26f3691cf4ed59718381fb2f18070ec52be1f1022d855557836040518082815260200191505060405180910390a1505050565b60606000806000806000600260008881526020019081526020016000206000018054600181600116156101000203166002900480601f0160208091040260200160405190810160405280929190818152602001828054600181600116156101000203166002900480156108d55780601f106108aa576101008083540402835291602001916108d5565b820191906000526020600020905b8154815290600101906020018083116108b857829003601f168201915b5050505050955060026000888152602001908152602001600020600101549450600260008881526020019081526020016000206002015493506002600088815260200190815260200160002060030160009054906101000a900460ff16600381111561093d57fe5b92506002600088815260200190815260200160002060030160019054906101000a900473ffffffffffffffffffffffffffffffffffffffff1691506002600088815260200190815260200160002060040160009054906101000a900473ffffffffffffffffffffffffffffffffffffffff16905085858585858595509550955095509550955091939550919395565b6002602052806000526040600020600091509050806000018054600181600116156101000203166002900480601f016020809104026020016040519081016040528092919081815260200182805460018160011615610100020316600290048015610a785780601f10610a4d57610100808354040283529160200191610a78565b820191906000526020600020905b815481529060010190602001808311610a5b57829003601f168201915b5050505050908060010154908060020154908060030160009054906101000a900460ff16908060030160019054906101000a900473ffffffffffffffffffffffffffffffffffffffff16908060040160009054906101000a900473ffffffffffffffffffffffffffffffffffffffff16905086565b8060006003811115610afb57fe5b6002600083815260200190815260200160002060030160009054906101000a900460ff166003811115610b2a57fe5b141515610b3657600080fd5b6002600083815260200190815260200160002060020154803410151515610b5c57600080fd5b82336002600086815260200190815260200160002060040160006101000a81548173ffffffffffffffffffffffffffffffffffffffff021916908373ffffffffffffffffffffffffffffffffffffffff16021790555060016002600086815260200190815260200160002060030160006101000a81548160ff02191690836003811115610be557fe5b02179055507f92f64ca637d023f354075a4be751b169c1a8a9ccb6d33cdd0cb3520543995727846040518082815260200191505060405180910390a1600060026000838152602001908152602001600020600201549050600081340390506002600084815260200190815260200160002060040160009054906101000a900473ffffffffffffffffffffffffffffffffffffffff1673ffffffffffffffffffffffffffffffffffffffff166108fc829081150290604051600060405180830381858888f19350505050158015610cbf573d6000803e3d6000fd5b50505050505050565b8060016003811115610cd657fe5b6002600083815260200190815260200160002060030160009054906101000a900460ff166003811115610d0557fe5b141515610d1157600080fd5b6002600083815260200190815260200160002060030160019054906101000a900473ffffffffffffffffffffffffffffffffffffffff168073ffffffffffffffffffffffffffffffffffffffff163373ffffffffffffffffffffffffffffffffffffffff16141515610d8257600080fd5b600280600085815260200190815260200160002060030160006101000a81548160ff02191690836003811115610db457fe5b02179055507ff00b9a5725b80c54016f42114f6ed7792d22eecb116011c4afac29c57bef6c95836040518082815260200191505060405180910390a1505050565b828054600181600116156101000203166002900490600052602060002090601f016020900481019282601f10610e3657805160ff1916838001178555610e64565b82800160010185558215610e64579182015b82811115610e63578251825591602001919060010190610e48565b5b509050610e719190610e75565b5090565b610e9791905b80821115610e93576000816000905550600101610e7b565b5090565b9056fea165627a7a723058204f568c13cbfcca782ad560156245b96d766bb5ae676525fef234ba87815629ab0029",
  "source": "/*\r\n    This exercise has been updated to use Solidity version 0.5\r\n    Breaking changes from 0.4 to 0.5 can be found here:\r\n    https://solidity.readthedocs.io/en/v0.5.0/050-breaking-changes.html\r\n*/\r\n\r\npragma solidity ^0.5.0;\r\n\r\ncontract SupplyChain {\r\n\r\n  /* set owner */\r\n  address public owner;\r\n\r\n  /* Add a variable called skuCount to track the most recent sku # */\r\n  uint public skuCount;\r\n\r\n  /* Add a line that creates a public mapping that maps the SKU (a number) to an Item.\r\n     Call this mappings items\r\n  */\r\n  mapping (uint => Item) public items;\r\n\r\n  /* Add a line that creates an enum called State. This should have 4 states\r\n    ForSale\r\n    Sold\r\n    Shipped\r\n    Received\r\n    (declaring them in this order is important for testing)\r\n  */\r\n  enum State {ForSale, Sold, Shipped, Received}\r\n\r\n  /* Create a struct named Item.\r\n    Here, add a name, sku, price, state, seller, and buyer\r\n    We've left you to figure out what the appropriate types are,\r\n    if you need help you can ask around :)\r\n  */\r\n  struct Item {\r\n    string name;\r\n    uint sku;\r\n    uint price;\r\n    State state;\r\n    address seller;\r\n    address payable buyer;\r\n  }\r\n  /* Create 4 events with the same name as each possible State (see above)\r\n    Each event should accept one argument, the sku*/\r\n  event ForSale(uint sku);\r\n  event Sold(uint sku);\r\n  event Shipped(uint sku);\r\n  event Received(uint sku);\r\n\r\n/* Create a modifer that checks if the msg.sender is the owner of the contract */\r\n\r\n  modifier verifyCaller (address _address) { require (msg.sender == _address); _;}\r\n\r\n  modifier paidEnough(uint _price) { require(msg.value >= _price); _;}\r\n  modifier checkValue(uint _sku) {\r\n    //refund them after pay for item (why it is before, _ checks for logic before func)\r\n    _;\r\n    uint _price = items[_sku].price;\r\n    uint amountToRefund = msg.value - _price;\r\n    items[_sku].buyer.transfer(amountToRefund);\r\n  }\r\n\r\n  /* For each of the following modifiers, use what you learned about modifiers\r\n   to give them functionality. For example, the forSale modifier should require\r\n   that the item with the given sku has the state ForSale. */\r\n  modifier forSale (uint _sku) {\r\n    require (items[_sku].state == State.ForSale);\r\n    _;\r\n  }\r\n\r\n  modifier sold (uint _sku) {\r\n    require (items[_sku].state == State.Sold);\r\n    _;\r\n  }\r\n\r\n  modifier shipped (uint _sku) {\r\n    require (items[_sku].state == State.Shipped);\r\n    _;\r\n  }\r\n\r\n  modifier received (uint _sku) {\r\n    require (items[_sku].state == State.Received);\r\n    _;\r\n  }\r\n\r\n\r\n  constructor() public {\r\n    /* Here, set the owner as the person who instantiated the contract\r\n       and set your skuCount to 0. */\r\n    owner = msg.sender;\r\n    skuCount = 0;\r\n  }\r\n\r\n  function addItem(string memory _name, uint _price) public returns(bool){\r\n    emit ForSale(skuCount);\r\n    items[skuCount] = Item({name: _name, sku: skuCount, price: _price, state: State.ForSale, seller: msg.sender, buyer: address(0)});\r\n    skuCount = skuCount + 1;\r\n    return true;\r\n  }\r\n\r\n  /* Add a keyword so the function can be paid. This function should transfer money\r\n    to the seller, set the buyer as the person who called this transaction, and set the state\r\n    to Sold. Be careful, this function should use 3 modifiers to check if the item is for sale,\r\n    if the buyer paid enough, and check the value after the function is called to make sure the buyer is\r\n    refunded any excess ether sent. Remember to call the event associated with this function!*/\r\n\r\n  function buyItem(uint sku) forSale(sku) paidEnough(items[sku].price) checkValue(sku)\r\n    public\r\n    payable\r\n  {\r\n    items[sku].buyer = msg.sender;\r\n    items[sku].state = State.Sold;\r\n    emit Sold(sku);\r\n  }\r\n\r\n  /* Add 2 modifiers to check if the item is sold already, and that the person calling this function\r\n  is the seller. Change the state of the item to shipped. Remember to call the event associated with this function!*/\r\n  function shipItem(uint sku) sold(sku) verifyCaller(items[sku].seller)\r\n    public\r\n  {\r\n    items[sku].state = State.Shipped;\r\n    emit Shipped(sku);\r\n  }\r\n\r\n  /* Add 2 modifiers to check if the item is shipped already, and that the person calling this function\r\n  is the buyer. Change the state of the item to received. Remember to call the event associated with this function!*/\r\n  function receiveItem(uint sku) shipped(sku) verifyCaller(items[sku].buyer)\r\n    public\r\n  {\r\n    items[sku].state = State.Received;\r\n    emit Received(sku);\r\n  }\r\n\r\n  /* We have these functions completed so we can run tests, just ignore it :) */\r\n  function fetchItem(uint _sku) public view returns (string memory name, uint sku, uint price, uint state, address seller, address buyer) {\r\n    name = items[_sku].name;\r\n    sku = items[_sku].sku;\r\n    price = items[_sku].price;\r\n    state = uint(items[_sku].state);\r\n    seller = items[_sku].seller;\r\n    buyer = items[_sku].buyer;\r\n    return (name, sku, price, state, seller, buyer);\r\n  }\r\n\r\n}\r\n",
  "sourcePath": "C:/Users/choko/OneDrive - M4BC2/research/trainings/exercises/graded assignments/supply-chain-m4bc2/contracts/SupplyChain.sol",
  "compiler": {
    "name": "solc",
    "version": "0.5.0+commit.1d4f565a.Emscripten.clang"
  },
  "schemaVersion": "3.0.1",
  "updatedAt": "2019-01-27T19:23:25.954Z",
  "devdoc": {
    "methods": {}
  },
  "userdoc": {
    "methods": {}
  }
}